{"abi":[{"type":"constructor","inputs":[],"stateMutability":"nonpayable"},{"type":"receive","stateMutability":"payable"},{"type":"function","name":"PREMIUM","inputs":[],"outputs":[{"name":"","type":"bytes32","internalType":"bytes32"}],"stateMutability":"view"},{"type":"function","name":"STANDARD","inputs":[],"outputs":[{"name":"","type":"bytes32","internalType":"bytes32"}],"stateMutability":"view"},{"type":"function","name":"UPGRADE_INTERFACE_VERSION","inputs":[],"outputs":[{"name":"","type":"string","internalType":"string"}],"stateMutability":"view"},{"type":"function","name":"__Blog_init","inputs":[{"name":"initialOwner","type":"address","internalType":"address"},{"name":"premiumFee","type":"uint256","internalType":"uint256"},{"name":"_uri","type":"string","internalType":"string"}],"outputs":[],"stateMutability":"nonpayable"},{"type":"function","name":"balance","inputs":[],"outputs":[{"name":"","type":"uint256","internalType":"uint256"}],"stateMutability":"view"},{"type":"function","name":"balanceOf","inputs":[{"name":"account","type":"address","internalType":"address"},{"name":"id","type":"uint256","internalType":"uint256"}],"outputs":[{"name":"","type":"uint256","internalType":"uint256"}],"stateMutability":"view"},{"type":"function","name":"balanceOfBatch","inputs":[{"name":"accounts","type":"address[]","internalType":"address[]"},{"name":"ids","type":"uint256[]","internalType":"uint256[]"}],"outputs":[{"name":"","type":"uint256[]","internalType":"uint256[]"}],"stateMutability":"view"},{"type":"function","name":"contractName","inputs":[],"outputs":[{"name":"","type":"string","internalType":"string"}],"stateMutability":"pure"},{"type":"function","name":"exists","inputs":[{"name":"id","type":"uint256","internalType":"uint256"}],"outputs":[{"name":"","type":"bool","internalType":"bool"}],"stateMutability":"view"},{"type":"function","name":"getPremiumFee","inputs":[],"outputs":[{"name":"","type":"uint256","internalType":"uint256"}],"stateMutability":"view"},{"type":"function","name":"isApprovedForAll","inputs":[{"name":"account","type":"address","internalType":"address"},{"name":"operator","type":"address","internalType":"address"}],"outputs":[{"name":"","type":"bool","internalType":"bool"}],"stateMutability":"view"},{"type":"function","name":"mint","inputs":[],"outputs":[],"stateMutability":"payable"},{"type":"function","name":"mintPremium","inputs":[{"name":"tokenURI","type":"string","internalType":"string"}],"outputs":[],"stateMutability":"payable"},{"type":"function","name":"modifyURI","inputs":[{"name":"newuri","type":"string","internalType":"string"}],"outputs":[],"stateMutability":"nonpayable"},{"type":"function","name":"owner","inputs":[],"outputs":[{"name":"","type":"address","internalType":"address"}],"stateMutability":"view"},{"type":"function","name":"pause","inputs":[],"outputs":[],"stateMutability":"nonpayable"},{"type":"function","name":"paused","inputs":[],"outputs":[{"name":"","type":"bool","internalType":"bool"}],"stateMutability":"view"},{"type":"function","name":"proxiableUUID","inputs":[],"outputs":[{"name":"","type":"bytes32","internalType":"bytes32"}],"stateMutability":"view"},{"type":"function","name":"renounceOwnership","inputs":[],"outputs":[],"stateMutability":"nonpayable"},{"type":"function","name":"safeBatchTransferFrom","inputs":[{"name":"from","type":"address","internalType":"address"},{"name":"to","type":"address","internalType":"address"},{"name":"ids","type":"uint256[]","internalType":"uint256[]"},{"name":"values","type":"uint256[]","internalType":"uint256[]"},{"name":"data","type":"bytes","internalType":"bytes"}],"outputs":[],"stateMutability":"nonpayable"},{"type":"function","name":"safeTransferFrom","inputs":[{"name":"from","type":"address","internalType":"address"},{"name":"to","type":"address","internalType":"address"},{"name":"id","type":"uint256","internalType":"uint256"},{"name":"value","type":"uint256","internalType":"uint256"},{"name":"data","type":"bytes","internalType":"bytes"}],"outputs":[],"stateMutability":"nonpayable"},{"type":"function","name":"setApprovalForAll","inputs":[{"name":"operator","type":"address","internalType":"address"},{"name":"approved","type":"bool","internalType":"bool"}],"outputs":[],"stateMutability":"nonpayable"},{"type":"function","name":"supportsInterface","inputs":[{"name":"interfaceId","type":"bytes4","internalType":"bytes4"}],"outputs":[{"name":"","type":"bool","internalType":"bool"}],"stateMutability":"view"},{"type":"function","name":"totalSupply","inputs":[],"outputs":[{"name":"","type":"uint256","internalType":"uint256"}],"stateMutability":"view"},{"type":"function","name":"totalSupply","inputs":[{"name":"id","type":"uint256","internalType":"uint256"}],"outputs":[{"name":"","type":"uint256","internalType":"uint256"}],"stateMutability":"view"},{"type":"function","name":"transferOwnership","inputs":[{"name":"newOwner","type":"address","internalType":"address"}],"outputs":[],"stateMutability":"nonpayable"},{"type":"function","name":"unpause","inputs":[],"outputs":[],"stateMutability":"nonpayable"},{"type":"function","name":"updatePremiumFee","inputs":[{"name":"newFee","type":"uint256","internalType":"uint256"}],"outputs":[],"stateMutability":"nonpayable"},{"type":"function","name":"upgradeToAndCall","inputs":[{"name":"newImplementation","type":"address","internalType":"address"},{"name":"data","type":"bytes","internalType":"bytes"}],"outputs":[],"stateMutability":"payable"},{"type":"function","name":"uri","inputs":[{"name":"","type":"uint256","internalType":"uint256"}],"outputs":[{"name":"","type":"string","internalType":"string"}],"stateMutability":"view"},{"type":"function","name":"version","inputs":[],"outputs":[{"name":"","type":"string","internalType":"string"}],"stateMutability":"pure"},{"type":"function","name":"withdraw","inputs":[{"name":"des","type":"address","internalType":"address payable"}],"outputs":[],"stateMutability":"nonpayable"},{"type":"event","name":"ApprovalForAll","inputs":[{"name":"account","type":"address","indexed":true,"internalType":"address"},{"name":"operator","type":"address","indexed":true,"internalType":"address"},{"name":"approved","type":"bool","indexed":false,"internalType":"bool"}],"anonymous":false},{"type":"event","name":"FundsReceived","inputs":[{"name":"sender","type":"address","indexed":true,"internalType":"address"},{"name":"amount","type":"uint256","indexed":false,"internalType":"uint256"}],"anonymous":false},{"type":"event","name":"FundsWithdrawn","inputs":[{"name":"recipient","type":"address","indexed":true,"internalType":"address"},{"name":"amount","type":"uint256","indexed":false,"internalType":"uint256"}],"anonymous":false},{"type":"event","name":"Initialized","inputs":[{"name":"version","type":"uint64","indexed":false,"internalType":"uint64"}],"anonymous":false},{"type":"event","name":"OwnershipTransferred","inputs":[{"name":"previousOwner","type":"address","indexed":true,"internalType":"address"},{"name":"newOwner","type":"address","indexed":true,"internalType":"address"}],"anonymous":false},{"type":"event","name":"Paused","inputs":[{"name":"account","type":"address","indexed":false,"internalType":"address"}],"anonymous":false},{"type":"event","name":"PremiumReceived","inputs":[{"name":"sender","type":"address","indexed":true,"internalType":"address"},{"name":"tokenURI","type":"string","indexed":false,"internalType":"string"}],"anonymous":false},{"type":"event","name":"TransferBatch","inputs":[{"name":"operator","type":"address","indexed":true,"internalType":"address"},{"name":"from","type":"address","indexed":true,"internalType":"address"},{"name":"to","type":"address","indexed":true,"internalType":"address"},{"name":"ids","type":"uint256[]","indexed":false,"internalType":"uint256[]"},{"name":"values","type":"uint256[]","indexed":false,"internalType":"uint256[]"}],"anonymous":false},{"type":"event","name":"TransferSingle","inputs":[{"name":"operator","type":"address","indexed":true,"internalType":"address"},{"name":"from","type":"address","indexed":true,"internalType":"address"},{"name":"to","type":"address","indexed":true,"internalType":"address"},{"name":"id","type":"uint256","indexed":false,"internalType":"uint256"},{"name":"value","type":"uint256","indexed":false,"internalType":"uint256"}],"anonymous":false},{"type":"event","name":"URI","inputs":[{"name":"value","type":"string","indexed":false,"internalType":"string"},{"name":"id","type":"uint256","indexed":true,"internalType":"uint256"}],"anonymous":false},{"type":"event","name":"Unpaused","inputs":[{"name":"account","type":"address","indexed":false,"internalType":"address"}],"anonymous":false},{"type":"event","name":"Upgraded","inputs":[{"name":"implementation","type":"address","indexed":true,"internalType":"address"}],"anonymous":false},{"type":"error","name":"AddressEmptyCode","inputs":[{"name":"target","type":"address","internalType":"address"}]},{"type":"error","name":"ContractNameChanged","inputs":[]},{"type":"error","name":"ERC1155InsufficientBalance","inputs":[{"name":"sender","type":"address","internalType":"address"},{"name":"balance","type":"uint256","internalType":"uint256"},{"name":"needed","type":"uint256","internalType":"uint256"},{"name":"tokenId","type":"uint256","internalType":"uint256"}]},{"type":"error","name":"ERC1155InvalidApprover","inputs":[{"name":"approver","type":"address","internalType":"address"}]},{"type":"error","name":"ERC1155InvalidArrayLength","inputs":[{"name":"idsLength","type":"uint256","internalType":"uint256"},{"name":"valuesLength","type":"uint256","internalType":"uint256"}]},{"type":"error","name":"ERC1155InvalidOperator","inputs":[{"name":"operator","type":"address","internalType":"address"}]},{"type":"error","name":"ERC1155InvalidReceiver","inputs":[{"name":"receiver","type":"address","internalType":"address"}]},{"type":"error","name":"ERC1155InvalidSender","inputs":[{"name":"sender","type":"address","internalType":"address"}]},{"type":"error","name":"ERC1155MissingApprovalForAll","inputs":[{"name":"operator","type":"address","internalType":"address"},{"name":"owner","type":"address","internalType":"address"}]},{"type":"error","name":"ERC1967InvalidImplementation","inputs":[{"name":"implementation","type":"address","internalType":"address"}]},{"type":"error","name":"ERC1967NonPayable","inputs":[]},{"type":"error","name":"EmptyBalance","inputs":[]},{"type":"error","name":"EnforcedPause","inputs":[]},{"type":"error","name":"ExpectedPause","inputs":[]},{"type":"error","name":"FailedCall","inputs":[]},{"type":"error","name":"InvalidInitialization","inputs":[]},{"type":"error","name":"InvalidNewFee","inputs":[]},{"type":"error","name":"InvalidTokenId","inputs":[]},{"type":"error","name":"LessThanPremiumFee","inputs":[{"name":"requiredFee","type":"uint256","internalType":"uint256"}]},{"type":"error","name":"NonTransferrable","inputs":[]},{"type":"error","name":"NotInitializing","inputs":[]},{"type":"error","name":"OwnableInvalidOwner","inputs":[{"name":"owner","type":"address","internalType":"address"}]},{"type":"error","name":"OwnableUnauthorizedAccount","inputs":[{"name":"account","type":"address","internalType":"address"}]},{"type":"error","name":"ReentrancyGuardReentrantCall","inputs":[]},{"type":"error","name":"UUPSUnauthorizedCallContext","inputs":[]},{"type":"error","name":"UUPSUnsupportedProxiableUUID","inputs":[{"name":"slot","type":"bytes32","internalType":"bytes32"}]},{"type":"error","name":"WithdrawalFailedNoData","inputs":[]}],"bytecode":{"object":"0x60a06040523073ffffffffffffffffffffffffffffffffffffffff1660809073ffffffffffffffffffffffffffffffffffffffff16815250348015610042575f5ffd5b5061005161005660201b60201c565b6101d1565b5f61006561015460201b60201c565b9050805f0160089054906101000a900460ff16156100af576040517ff92ee8a900000000000000000000000000000000000000000000000000000000815260040160405180910390fd5b67ffffffffffffffff8016815f015f9054906101000a900467ffffffffffffffff1667ffffffffffffffff16146101515767ffffffffffffffff815f015f6101000a81548167ffffffffffffffff021916908367ffffffffffffffff1602179055507fc7f505b2f371ae2175ee4913f4499e1f2633a7b5936321eed1cdaeb6115181d267ffffffffffffffff60405161014891906101b8565b60405180910390a15b50565b5f5f61016461016d60201b60201c565b90508091505090565b5f7ff0c57e16840df040f15088dc2f81fe391c3923bec73e23a9662efc9c229c6a005f1b905090565b5f67ffffffffffffffff82169050919050565b6101b281610196565b82525050565b5f6020820190506101cb5f8301846101a9565b92915050565b60805161443e6101f75f395f818161180e015281816118630152611ad3015261443e5ff3fe6080604052600436106101e5575f3560e01c8063715018a611610101578063b69ef8a811610094578063e985e9c511610063578063e985e9c5146106c5578063ea3696ca14610701578063f242432a1461072b578063f2fde38b1461075357610241565b8063b69ef8a81461060d578063bcaedade14610637578063bd85b03914610661578063d20e8de61461069d57610241565b80638da5cb5b116100d05780638da5cb5b1461056957806394205c2f14610593578063a22cb465146105bb578063ad3cb1cc146105e357610241565b8063715018a6146104eb57806375d0c0dc146105015780638456cb591461052b5780638cc082011461054157610241565b80634e1273f41161017957806352d1902d1161014857806352d1902d1461044357806354fd4d501461046d5780635c975abb1461049757806365c1136b146104c157610241565b80634e1273f4146103875780634f1ef286146103c35780634f558e79146103df57806351cff8d91461041b57610241565b806318160ddd116101b557806318160ddd146103035780632eb2c2d61461032d5780633f4ba83a146103555780634c01a4e71461036b57610241565b8062fdd58e1461024557806301ffc9a7146102815780630e89341c146102bd5780631249c58b146102f957610241565b36610241576101f261077b565b73ffffffffffffffffffffffffffffffffffffffff167f8e47b87b0ef542cdfa1659c551d88bad38aa7f452d2bbb349ab7530dfec8be8f346040516102379190613005565b60405180910390a2005b5f5ffd5b348015610250575f5ffd5b5061026b600480360381019061026691906130b3565b610782565b6040516102789190613005565b60405180910390f35b34801561028c575f5ffd5b506102a760048036038101906102a29190613146565b6107e5565b6040516102b4919061318b565b60405180910390f35b3480156102c8575f5ffd5b506102e360048036038101906102de91906131a4565b6108c6565b6040516102f0919061323f565b60405180910390f35b610301610966565b005b34801561030e575f5ffd5b50610317610a05565b6040516103249190613005565b60405180910390f35b348015610338575f5ffd5b50610353600480360381019061034e919061344f565b610a1c565b005b348015610360575f5ffd5b50610369610ac3565b005b61038560048036038101906103809190613573565b610ad5565b005b348015610392575f5ffd5b506103ad60048036038101906103a8919061367e565b610bc2565b6040516103ba91906137ab565b60405180910390f35b6103dd60048036038101906103d891906137cb565b610ccc565b005b3480156103ea575f5ffd5b50610405600480360381019061040091906131a4565b610ceb565b604051610412919061318b565b60405180910390f35b348015610426575f5ffd5b50610441600480360381019061043c9190613860565b610cfe565b005b34801561044e575f5ffd5b50610457610e55565b60405161046491906138a3565b60405180910390f35b348015610478575f5ffd5b50610481610e86565b60405161048e919061323f565b60405180910390f35b3480156104a2575f5ffd5b506104ab610ec3565b6040516104b8919061318b565b60405180910390f35b3480156104cc575f5ffd5b506104d5610ee5565b6040516104e29190613005565b60405180910390f35b3480156104f6575f5ffd5b506104ff610efb565b005b34801561050c575f5ffd5b50610515610f0e565b604051610522919061323f565b60405180910390f35b348015610536575f5ffd5b5061053f610f4b565b005b34801561054c575f5ffd5b50610567600480360381019061056291906138bc565b610f5d565b005b348015610574575f5ffd5b5061057d611156565b60405161058a919061393c565b60405180910390f35b34801561059e575f5ffd5b506105b960048036038101906105b491906131a4565b61118b565b005b3480156105c6575f5ffd5b506105e160048036038101906105dc919061397f565b61119f565b005b3480156105ee575f5ffd5b506105f76111b5565b604051610604919061323f565b60405180910390f35b348015610618575f5ffd5b506106216111ee565b60405161062e9190613005565b60405180910390f35b348015610642575f5ffd5b5061064b6111f5565b60405161065891906138a3565b60405180910390f35b34801561066c575f5ffd5b50610687600480360381019061068291906131a4565b6111fc565b6040516106949190613005565b60405180910390f35b3480156106a8575f5ffd5b506106c360048036038101906106be9190613a5b565b611223565b005b3480156106d0575f5ffd5b506106eb60048036038101906106e69190613aa2565b611237565b6040516106f8919061318b565b60405180910390f35b34801561070c575f5ffd5b506107156112d3565b60405161072291906138a3565b60405180910390f35b348015610736575f5ffd5b50610751600480360381019061074c9190613ae0565b6112da565b005b34801561075e575f5ffd5b5061077960048036038101906107749190613b73565b611381565b005b5f33905090565b5f5f61078c611405565b9050805f015f8481526020019081526020015f205f8573ffffffffffffffffffffffffffffffffffffffff1673ffffffffffffffffffffffffffffffffffffffff1681526020019081526020015f205491505092915050565b5f7fd9b67a26000000000000000000000000000000000000000000000000000000007bffffffffffffffffffffffffffffffffffffffffffffffffffffffff1916827bffffffffffffffffffffffffffffffffffffffffffffffffffffffff191614806108af57507f0e89341c000000000000000000000000000000000000000000000000000000007bffffffffffffffffffffffffffffffffffffffffffffffffffffffff1916827bffffffffffffffffffffffffffffffffffffffffffffffffffffffff1916145b806108bf57506108be8261142c565b5b9050919050565b60605f6108d1611405565b90508060020180546108e290613bcb565b80601f016020809104026020016040519081016040528092919081815260200182805461090e90613bcb565b80156109595780601f1061093057610100808354040283529160200191610959565b820191905f5260205f20905b81548152906001019060200180831161093c57829003601f168201915b5050505050915050919050565b61096e611495565b6109766114d6565b61099d61098161077b565b60015f1b5f1c600160405180602001604052805f81525061152a565b5f3411156109fb576109ad61077b565b73ffffffffffffffffffffffffffffffffffffffff167f8e47b87b0ef542cdfa1659c551d88bad38aa7f452d2bbb349ab7530dfec8be8f346040516109f29190613005565b60405180910390a25b610a036115bf565b565b5f5f610a0f6115d6565b9050806001015491505090565b5f610a2561077b565b90508073ffffffffffffffffffffffffffffffffffffffff168673ffffffffffffffffffffffffffffffffffffffff1614158015610a6a5750610a688682611237565b155b15610aae5780866040517fe237d922000000000000000000000000000000000000000000000000000000008152600401610aa5929190613bfb565b60405180910390fd5b610abb86868686866115fd565b505050505050565b610acb6116f1565b610ad3611778565b565b610add611495565b610ae56114d6565b5f610aee610ee5565b9050803410158190610b36576040517f551d4cbc000000000000000000000000000000000000000000000000000000008152600401610b2d9190613005565b60405180910390fd5b50610b5e610b4261077b565b60025f1b5f1c600160405180602001604052805f81525061152a565b610b6661077b565b73ffffffffffffffffffffffffffffffffffffffff167fc0dd532ff7b7f1b2d0e1723095e25536628064af4ed2b7f6cc525c0c4cc65ed98484604051610bad929190613c4e565b60405180910390a250610bbe6115bf565b5050565b60608151835114610c0e57815183516040517f5b059991000000000000000000000000000000000000000000000000000000008152600401610c05929190613c70565b60405180910390fd5b5f835167ffffffffffffffff811115610c2a57610c29613263565b5b604051908082528060200260200182016040528015610c585781602001602082028036833780820191505090505b5090505f5f90505b8451811015610cc157610c97610c7f82876117e690919063ffffffff16565b610c9283876117f990919063ffffffff16565b610782565b828281518110610caa57610ca9613c97565b5b602002602001018181525050806001019050610c60565b508091505092915050565b610cd461180c565b610cdd826118f2565b610ce782826119b3565b5050565b5f5f610cf6836111fc565b119050919050565b610d066116f1565b610d0e6114d6565b5f610d176111ee565b03610d4e576040517f2313b4b600000000000000000000000000000000000000000000000000000000815260040160405180910390fd5b5f8173ffffffffffffffffffffffffffffffffffffffff16610d6e6111ee565b604051610d7a90613cf1565b5f6040518083038185875af1925050503d805f8114610db4576040519150601f19603f3d011682016040523d82523d5f602084013e610db9565b606091505b5050905080610df4576040517f49e0956700000000000000000000000000000000000000000000000000000000815260040160405180910390fd5b8173ffffffffffffffffffffffffffffffffffffffff167feaff4b37086828766ad3268786972c0cd24259d4c87a80f9d3963a3c3d999b0d610e346111ee565b604051610e419190613005565b60405180910390a250610e526115bf565b50565b5f610e5e611ad1565b7f360894a13ba1a3210667c828492db98dca3e2076cc3735a920a3ca505d382bbc5f1b905090565b60606040518060400160405280600581526020017f312e302e30000000000000000000000000000000000000000000000000000000815250905090565b5f5f610ecd611b58565b9050805f015f9054906101000a900460ff1691505090565b5f5f610eef611b7f565b9050805f015491505090565b610f036116f1565b610f0c5f611ba6565b565b60606040518060400160405280600481526020017f426c6f6700000000000000000000000000000000000000000000000000000000815250905090565b610f536116f1565b610f5b611c77565b565b5f610f66611ce6565b90505f815f0160089054906101000a900460ff161590505f825f015f9054906101000a900467ffffffffffffffff1690505f5f8267ffffffffffffffff16148015610fae5750825b90505f60018367ffffffffffffffff16148015610fe157505f3073ffffffffffffffffffffffffffffffffffffffff163b145b905081158015610fef575080155b15611026576040517ff92ee8a900000000000000000000000000000000000000000000000000000000815260040160405180910390fd5b6001855f015f6101000a81548167ffffffffffffffff021916908367ffffffffffffffff1602179055508315611073576001855f0160086101000a81548160ff0219169083151502179055505b61107c89611cf9565b611084611d0d565b61108c611d17565b6110d887878080601f0160208091040260200160405190810160405280939291908181526020018383808284375f81840152601f19601f82011690508083019250505050505050611d29565b6110e0611d3d565b6110e8611d47565b6110f188611d51565b831561114b575f855f0160086101000a81548160ff0219169083151502179055507fc7f505b2f371ae2175ee4913f4499e1f2633a7b5936321eed1cdaeb6115181d260016040516111429190613d5a565b60405180910390a15b505050505050505050565b5f5f611160611d65565b9050805f015f9054906101000a900473ffffffffffffffffffffffffffffffffffffffff1691505090565b6111936116f1565b61119c81611d8c565b50565b6111b16111aa61077b565b8383611dea565b5050565b6040518060400160405280600581526020017f352e302e3000000000000000000000000000000000000000000000000000000081525081565b5f47905090565b60015f1b81565b5f5f6112066115d6565b9050805f015f8481526020019081526020015f2054915050919050565b61122b6116f1565b61123481611f61565b50565b5f5f611241611405565b9050806001015f8573ffffffffffffffffffffffffffffffffffffffff1673ffffffffffffffffffffffffffffffffffffffff1681526020019081526020015f205f8473ffffffffffffffffffffffffffffffffffffffff1673ffffffffffffffffffffffffffffffffffffffff1681526020019081526020015f205f9054906101000a900460ff1691505092915050565b60025f1b81565b5f6112e361077b565b90508073ffffffffffffffffffffffffffffffffffffffff168673ffffffffffffffffffffffffffffffffffffffff161415801561132857506113268682611237565b155b1561136c5780866040517fe237d922000000000000000000000000000000000000000000000000000000008152600401611363929190613bfb565b60405180910390fd5b6113798686868686611f82565b505050505050565b6113896116f1565b5f73ffffffffffffffffffffffffffffffffffffffff168173ffffffffffffffffffffffffffffffffffffffff16036113f9575f6040517f1e4fbdf70000000000000000000000000000000000000000000000000000000081526004016113f0919061393c565b60405180910390fd5b61140281611ba6565b50565b5f7f88be536d5240c274a3b1d3a1be54482fd9caa294f08c62a7cde569f49a3c4500905090565b5f7f01ffc9a7000000000000000000000000000000000000000000000000000000007bffffffffffffffffffffffffffffffffffffffffffffffffffffffff1916827bffffffffffffffffffffffffffffffffffffffffffffffffffffffff1916149050919050565b61149d610ec3565b156114d4576040517fd93c066500000000000000000000000000000000000000000000000000000000815260040160405180910390fd5b565b5f6114df612088565b90506002815f01540361151e576040517f3ee5aeb500000000000000000000000000000000000000000000000000000000815260040160405180910390fd5b6002815f018190555050565b5f73ffffffffffffffffffffffffffffffffffffffff168473ffffffffffffffffffffffffffffffffffffffff160361159a575f6040517f57f447ce000000000000000000000000000000000000000000000000000000008152600401611591919061393c565b60405180910390fd5b5f5f6115a685856120af565b915091506115b75f878484876120df565b505050505050565b5f6115c8612088565b90506001815f018190555050565b5f7f4a593662ee04d27b6a00ebb31be7fe0c102c2ade82a7c5d764f2df05dc4e2800905090565b5f73ffffffffffffffffffffffffffffffffffffffff168473ffffffffffffffffffffffffffffffffffffffff160361166d575f6040517f57f447ce000000000000000000000000000000000000000000000000000000008152600401611664919061393c565b60405180910390fd5b5f73ffffffffffffffffffffffffffffffffffffffff168573ffffffffffffffffffffffffffffffffffffffff16036116dd575f6040517f01a835140000000000000000000000000000000000000000000000000000000081526004016116d4919061393c565b60405180910390fd5b6116ea85858585856120df565b5050505050565b6116f961077b565b73ffffffffffffffffffffffffffffffffffffffff16611717611156565b73ffffffffffffffffffffffffffffffffffffffff16146117765761173a61077b565b6040517f118cdaa700000000000000000000000000000000000000000000000000000000815260040161176d919061393c565b60405180910390fd5b565b61178061218b565b5f611789611b58565b90505f815f015f6101000a81548160ff0219169083151502179055507f5db9ee0a495bf2e6ff9c91a7834c1ba4fdd244a5e8aa4e537bd38aeae4b073aa6117ce61077b565b6040516117db919061393c565b60405180910390a150565b5f60208202602084010151905092915050565b5f60208202602084010151905092915050565b7f000000000000000000000000000000000000000000000000000000000000000073ffffffffffffffffffffffffffffffffffffffff163073ffffffffffffffffffffffffffffffffffffffff1614806118b957507f000000000000000000000000000000000000000000000000000000000000000073ffffffffffffffffffffffffffffffffffffffff166118a06121cb565b73ffffffffffffffffffffffffffffffffffffffff1614155b156118f0576040517fe07c8dba00000000000000000000000000000000000000000000000000000000815260040160405180910390fd5b565b6118fa6116f1565b61197a8173ffffffffffffffffffffffffffffffffffffffff166375d0c0dc6040518163ffffffff1660e01b81526004015f60405180830381865afa158015611945573d5f5f3e3d5ffd5b505050506040513d5f823e3d601f19601f8201168201806040525081019061196d9190613de1565b611975610f0e565b61221e565b6119b0576040517fe968a2d400000000000000000000000000000000000000000000000000000000815260040160405180910390fd5b50565b8173ffffffffffffffffffffffffffffffffffffffff166352d1902d6040518163ffffffff1660e01b8152600401602060405180830381865afa925050508015611a1b57506040513d601f19601f82011682018060405250810190611a189190613e52565b60015b611a5c57816040517f4c9c8ce3000000000000000000000000000000000000000000000000000000008152600401611a53919061393c565b60405180910390fd5b7f360894a13ba1a3210667c828492db98dca3e2076cc3735a920a3ca505d382bbc5f1b8114611ac257806040517faa1d49a4000000000000000000000000000000000000000000000000000000008152600401611ab991906138a3565b60405180910390fd5b611acc8383612276565b505050565b7f000000000000000000000000000000000000000000000000000000000000000073ffffffffffffffffffffffffffffffffffffffff163073ffffffffffffffffffffffffffffffffffffffff1614611b56576040517fe07c8dba00000000000000000000000000000000000000000000000000000000815260040160405180910390fd5b565b5f7fcd5ed15c6e187e77e9aee88184c21f4f2182ab5827cb3b7e07fbedcd63f03300905090565b5f7fd8bb604eb75c19d7b5da195a10139ccc9ca74bf453bffef10737af641b552500905090565b5f611baf611d65565b90505f815f015f9054906101000a900473ffffffffffffffffffffffffffffffffffffffff16905082825f015f6101000a81548173ffffffffffffffffffffffffffffffffffffffff021916908373ffffffffffffffffffffffffffffffffffffffff1602179055508273ffffffffffffffffffffffffffffffffffffffff168173ffffffffffffffffffffffffffffffffffffffff167f8be0079c531659141344cd1fd0a4f28419497f9722a3daafe3b4186f6b6457e060405160405180910390a3505050565b611c7f611495565b5f611c88611b58565b90506001815f015f6101000a81548160ff0219169083151502179055507f62e78cea01bee320cd4e420270b5ea74000d11b0c9f74754ebdbfc544b05a258611cce61077b565b604051611cdb919061393c565b60405180910390a150565b5f5f611cf06122e8565b90508091505090565b611d01612311565b611d0a81612351565b50565b611d15612311565b565b611d1f612311565b611d276123d5565b565b611d31612311565b611d3a816123f4565b50565b611d45612311565b565b611d4f612311565b565b611d59612311565b611d6281611d8c565b50565b5f7f9016d09d72d40fdae2fd8ceac6b6234c7706214fd39c1cd1e609a0528c199300905090565b5f611d95611b7f565b905081815f01541480611da757505f82145b15611dde576040517fceb3796800000000000000000000000000000000000000000000000000000000815260040160405180910390fd5b81815f01819055505050565b5f611df3611405565b90505f73ffffffffffffffffffffffffffffffffffffffff168373ffffffffffffffffffffffffffffffffffffffff1603611e65575f6040517fced3e100000000000000000000000000000000000000000000000000000000008152600401611e5c919061393c565b60405180910390fd5b81816001015f8673ffffffffffffffffffffffffffffffffffffffff1673ffffffffffffffffffffffffffffffffffffffff1681526020019081526020015f205f8573ffffffffffffffffffffffffffffffffffffffff1673ffffffffffffffffffffffffffffffffffffffff1681526020019081526020015f205f6101000a81548160ff0219169083151502179055508273ffffffffffffffffffffffffffffffffffffffff168473ffffffffffffffffffffffffffffffffffffffff167f17307eab39ab6107e8899845ad3d59bd9653f200f220920489ca2b5937696c3184604051611f53919061318b565b60405180910390a350505050565b5f611f6a611405565b905081816002019081611f7d9190614014565b505050565b5f73ffffffffffffffffffffffffffffffffffffffff168473ffffffffffffffffffffffffffffffffffffffff1603611ff2575f6040517f57f447ce000000000000000000000000000000000000000000000000000000008152600401611fe9919061393c565b60405180910390fd5b5f73ffffffffffffffffffffffffffffffffffffffff168573ffffffffffffffffffffffffffffffffffffffff1603612062575f6040517f01a83514000000000000000000000000000000000000000000000000000000008152600401612059919061393c565b60405180910390fd5b5f5f61206e85856120af565b9150915061207f87878484876120df565b50505050505050565b5f7f9b779b17422d0df92223018b32b4d1fa46e071723d6817e2486d003becc55f00905090565b60608060405191506001825283602083015260408201905060018152826020820152604081016040529250929050565b6120eb85858585612408565b5f73ffffffffffffffffffffffffffffffffffffffff168473ffffffffffffffffffffffffffffffffffffffff1614612184575f61212761077b565b90506001845103612173575f6121465f866117f990919063ffffffff16565b90505f61215c5f866117f990919063ffffffff16565b905061216c8389898585896124d3565b5050612182565b612181818787878787612682565b5b505b5050505050565b612193610ec3565b6121c9576040517f8dfc202b00000000000000000000000000000000000000000000000000000000815260040160405180910390fd5b565b5f6121f77f360894a13ba1a3210667c828492db98dca3e2076cc3735a920a3ca505d382bbc5f1b612831565b5f015f9054906101000a900473ffffffffffffffffffffffffffffffffffffffff16905090565b5f81604051602001612230919061411d565b6040516020818303038152906040528051906020012083604051602001612257919061411d565b6040516020818303038152906040528051906020012014905092915050565b61227f8261283a565b8173ffffffffffffffffffffffffffffffffffffffff167fbc7cd75a20ee27fd9adebab32041f755214dbc6bffa90cc0225b39da2e5c2d3b60405160405180910390a25f815111156122db576122d58282612903565b506122e4565b6122e3612983565b5b5050565b5f7ff0c57e16840df040f15088dc2f81fe391c3923bec73e23a9662efc9c229c6a005f1b905090565b6123196129bf565b61234f576040517fd7e6bcf800000000000000000000000000000000000000000000000000000000815260040160405180910390fd5b565b612359612311565b5f73ffffffffffffffffffffffffffffffffffffffff168173ffffffffffffffffffffffffffffffffffffffff16036123c9575f6040517f1e4fbdf70000000000000000000000000000000000000000000000000000000081526004016123c0919061393c565b60405180910390fd5b6123d281611ba6565b50565b6123dd612311565b5f6123e6612088565b90506001815f018190555050565b6123fc612311565b61240581611f61565b50565b612410611495565b61241c848484846129dd565b5f5f90505b82518110156124cc5760025f1b5f1c83828151811061244357612442613c97565b5b6020026020010151036124bf575f73ffffffffffffffffffffffffffffffffffffffff168573ffffffffffffffffffffffffffffffffffffffff16146124be576040517f08c379a00000000000000000000000000000000000000000000000000000000081526004016124b59061417d565b60405180910390fd5b5b8080600101915050612421565b5050505050565b5f8473ffffffffffffffffffffffffffffffffffffffff163b111561267a578373ffffffffffffffffffffffffffffffffffffffff1663f23a6e6187878686866040518663ffffffff1660e01b81526004016125339594939291906141ed565b6020604051808303815f875af192505050801561256e57506040513d601f19601f8201168201806040525081019061256b9190614259565b60015b6125ef573d805f811461259c576040519150601f19603f3d011682016040523d82523d5f602084013e6125a1565b606091505b505f8151036125e757846040517f57f447ce0000000000000000000000000000000000000000000000000000000081526004016125de919061393c565b60405180910390fd5b805160208201fd5b63f23a6e6160e01b7bffffffffffffffffffffffffffffffffffffffffffffffffffffffff1916817bffffffffffffffffffffffffffffffffffffffffffffffffffffffff19161461267857846040517f57f447ce00000000000000000000000000000000000000000000000000000000815260040161266f919061393c565b60405180910390fd5b505b505050505050565b5f8473ffffffffffffffffffffffffffffffffffffffff163b1115612829578373ffffffffffffffffffffffffffffffffffffffff1663bc197c8187878686866040518663ffffffff1660e01b81526004016126e2959493929190614284565b6020604051808303815f875af192505050801561271d57506040513d601f19601f8201168201806040525081019061271a9190614259565b60015b61279e573d805f811461274b576040519150601f19603f3d011682016040523d82523d5f602084013e612750565b606091505b505f81510361279657846040517f57f447ce00000000000000000000000000000000000000000000000000000000815260040161278d919061393c565b60405180910390fd5b805160208201fd5b63bc197c8160e01b7bffffffffffffffffffffffffffffffffffffffffffffffffffffffff1916817bffffffffffffffffffffffffffffffffffffffffffffffffffffffff19161461282757846040517f57f447ce00000000000000000000000000000000000000000000000000000000815260040161281e919061393c565b60405180910390fd5b505b505050505050565b5f819050919050565b5f8173ffffffffffffffffffffffffffffffffffffffff163b0361289557806040517f4c9c8ce300000000000000000000000000000000000000000000000000000000815260040161288c919061393c565b60405180910390fd5b806128c17f360894a13ba1a3210667c828492db98dca3e2076cc3735a920a3ca505d382bbc5f1b612831565b5f015f6101000a81548173ffffffffffffffffffffffffffffffffffffffff021916908373ffffffffffffffffffffffffffffffffffffffff16021790555050565b60605f5f8473ffffffffffffffffffffffffffffffffffffffff168460405161292c919061431a565b5f60405180830381855af49150503d805f8114612964576040519150601f19603f3d011682016040523d82523d5f602084013e612969565b606091505b5091509150612979858383612b78565b9250505092915050565b5f3411156129bd576040517fb398979f00000000000000000000000000000000000000000000000000000000815260040160405180910390fd5b565b5f6129c8611ce6565b5f0160089054906101000a900460ff16905090565b5f6129e66115d6565b90506129f485858585612c05565b5f73ffffffffffffffffffffffffffffffffffffffff168573ffffffffffffffffffffffffffffffffffffffff1603612ac0575f5f90505f5f90505b8451811015612aa3575f612a4d82866117f990919063ffffffff16565b905080845f015f612a67858a6117f990919063ffffffff16565b81526020019081526020015f205f828254612a82919061435d565b925050819055508083612a95919061435d565b925050806001019050612a30565b5080826001015f828254612ab7919061435d565b92505081905550505b5f73ffffffffffffffffffffffffffffffffffffffff168473ffffffffffffffffffffffffffffffffffffffff1603612b71575f5f90505f5f90505b8451811015612b5d575f612b1982866117f990919063ffffffff16565b905080845f015f612b33858a6117f990919063ffffffff16565b81526020019081526020015f205f8282540392505081905550808301925050806001019050612afc565b5080826001015f8282540392505081905550505b5050505050565b606082612b8d57612b8882612faa565b612bfd565b5f8251148015612bb357505f8473ffffffffffffffffffffffffffffffffffffffff163b145b15612bf557836040517f9996b315000000000000000000000000000000000000000000000000000000008152600401612bec919061393c565b60405180910390fd5b819050612bfe565b5b9392505050565b5f612c0e611405565b90508151835114612c5a57825182516040517f5b059991000000000000000000000000000000000000000000000000000000008152600401612c51929190613c70565b60405180910390fd5b5f612c6361077b565b90505f5f90505b8451811015612e68575f612c8782876117f990919063ffffffff16565b90505f612c9d83876117f990919063ffffffff16565b90505f73ffffffffffffffffffffffffffffffffffffffff168973ffffffffffffffffffffffffffffffffffffffff1614612dc4575f855f015f8481526020019081526020015f205f8b73ffffffffffffffffffffffffffffffffffffffff1673ffffffffffffffffffffffffffffffffffffffff1681526020019081526020015f2054905081811015612d6e57898183856040517f03dee4c5000000000000000000000000000000000000000000000000000000008152600401612d659493929190614390565b60405180910390fd5b818103865f015f8581526020019081526020015f205f8c73ffffffffffffffffffffffffffffffffffffffff1673ffffffffffffffffffffffffffffffffffffffff1681526020019081526020015f2081905550505b5f73ffffffffffffffffffffffffffffffffffffffff168873ffffffffffffffffffffffffffffffffffffffff1614612e5b5780855f015f8481526020019081526020015f205f8a73ffffffffffffffffffffffffffffffffffffffff1673ffffffffffffffffffffffffffffffffffffffff1681526020019081526020015f205f828254612e53919061435d565b925050819055505b5050806001019050612c6a565b506001845103612f23575f612e865f866117f990919063ffffffff16565b90505f612e9c5f866117f990919063ffffffff16565b90508673ffffffffffffffffffffffffffffffffffffffff168873ffffffffffffffffffffffffffffffffffffffff168473ffffffffffffffffffffffffffffffffffffffff167fc3d58168c5ae7397731d063d5bbf3d657854427343f4c083240f7aacaa2d0f628585604051612f14929190613c70565b60405180910390a45050612fa2565b8473ffffffffffffffffffffffffffffffffffffffff168673ffffffffffffffffffffffffffffffffffffffff168273ffffffffffffffffffffffffffffffffffffffff167f4a39dc06d4c0dbc64b70af90fd698a233a518aa5d07e595d983b8c0526c8f7fb8787604051612f999291906143d3565b60405180910390a45b505050505050565b5f81511115612fbb57805160208201fd5b6040517fd6bda27500000000000000000000000000000000000000000000000000000000815260040160405180910390fd5b5f819050919050565b612fff81612fed565b82525050565b5f6020820190506130185f830184612ff6565b92915050565b5f604051905090565b5f5ffd5b5f5ffd5b5f73ffffffffffffffffffffffffffffffffffffffff82169050919050565b5f6130588261302f565b9050919050565b6130688161304e565b8114613072575f5ffd5b50565b5f813590506130838161305f565b92915050565b61309281612fed565b811461309c575f5ffd5b50565b5f813590506130ad81613089565b92915050565b5f5f604083850312156130c9576130c8613027565b5b5f6130d685828601613075565b92505060206130e78582860161309f565b9150509250929050565b5f7fffffffff0000000000000000000000000000000000000000000000000000000082169050919050565b613125816130f1565b811461312f575f5ffd5b50565b5f813590506131408161311c565b92915050565b5f6020828403121561315b5761315a613027565b5b5f61316884828501613132565b91505092915050565b5f8115159050919050565b61318581613171565b82525050565b5f60208201905061319e5f83018461317c565b92915050565b5f602082840312156131b9576131b8613027565b5b5f6131c68482850161309f565b91505092915050565b5f81519050919050565b5f82825260208201905092915050565b8281835e5f83830152505050565b5f601f19601f8301169050919050565b5f613211826131cf565b61321b81856131d9565b935061322b8185602086016131e9565b613234816131f7565b840191505092915050565b5f6020820190508181035f8301526132578184613207565b905092915050565b5f5ffd5b7f4e487b71000000000000000000000000000000000000000000000000000000005f52604160045260245ffd5b613299826131f7565b810181811067ffffffffffffffff821117156132b8576132b7613263565b5b80604052505050565b5f6132ca61301e565b90506132d68282613290565b919050565b5f67ffffffffffffffff8211156132f5576132f4613263565b5b602082029050602081019050919050565b5f5ffd5b5f61331c613317846132db565b6132c1565b9050808382526020820190506020840283018581111561333f5761333e613306565b5b835b818110156133685780613354888261309f565b845260208401935050602081019050613341565b5050509392505050565b5f82601f8301126133865761338561325f565b5b813561339684826020860161330a565b91505092915050565b5f5ffd5b5f67ffffffffffffffff8211156133bd576133bc613263565b5b6133c6826131f7565b9050602081019050919050565b828183375f83830152505050565b5f6133f36133ee846133a3565b6132c1565b90508281526020810184848401111561340f5761340e61339f565b5b61341a8482856133d3565b509392505050565b5f82601f8301126134365761343561325f565b5b81356134468482602086016133e1565b91505092915050565b5f5f5f5f5f60a0868803121561346857613467613027565b5b5f61347588828901613075565b955050602061348688828901613075565b945050604086013567ffffffffffffffff8111156134a7576134a661302b565b5b6134b388828901613372565b935050606086013567ffffffffffffffff8111156134d4576134d361302b565b5b6134e088828901613372565b925050608086013567ffffffffffffffff8111156135015761350061302b565b5b61350d88828901613422565b9150509295509295909350565b5f5ffd5b5f5f83601f8401126135335761353261325f565b5b8235905067ffffffffffffffff8111156135505761354f61351a565b5b60208301915083600182028301111561356c5761356b613306565b5b9250929050565b5f5f6020838503121561358957613588613027565b5b5f83013567ffffffffffffffff8111156135a6576135a561302b565b5b6135b28582860161351e565b92509250509250929050565b5f67ffffffffffffffff8211156135d8576135d7613263565b5b602082029050602081019050919050565b5f6135fb6135f6846135be565b6132c1565b9050808382526020820190506020840283018581111561361e5761361d613306565b5b835b8181101561364757806136338882613075565b845260208401935050602081019050613620565b5050509392505050565b5f82601f8301126136655761366461325f565b5b81356136758482602086016135e9565b91505092915050565b5f5f6040838503121561369457613693613027565b5b5f83013567ffffffffffffffff8111156136b1576136b061302b565b5b6136bd85828601613651565b925050602083013567ffffffffffffffff8111156136de576136dd61302b565b5b6136ea85828601613372565b9150509250929050565b5f81519050919050565b5f82825260208201905092915050565b5f819050602082019050919050565b61372681612fed565b82525050565b5f613737838361371d565b60208301905092915050565b5f602082019050919050565b5f613759826136f4565b61376381856136fe565b935061376e8361370e565b805f5b8381101561379e578151613785888261372c565b975061379083613743565b925050600181019050613771565b5085935050505092915050565b5f6020820190508181035f8301526137c3818461374f565b905092915050565b5f5f604083850312156137e1576137e0613027565b5b5f6137ee85828601613075565b925050602083013567ffffffffffffffff81111561380f5761380e61302b565b5b61381b85828601613422565b9150509250929050565b5f61382f8261302f565b9050919050565b61383f81613825565b8114613849575f5ffd5b50565b5f8135905061385a81613836565b92915050565b5f6020828403121561387557613874613027565b5b5f6138828482850161384c565b91505092915050565b5f819050919050565b61389d8161388b565b82525050565b5f6020820190506138b65f830184613894565b92915050565b5f5f5f5f606085870312156138d4576138d3613027565b5b5f6138e187828801613075565b94505060206138f28782880161309f565b935050604085013567ffffffffffffffff8111156139135761391261302b565b5b61391f8782880161351e565b925092505092959194509250565b6139368161304e565b82525050565b5f60208201905061394f5f83018461392d565b92915050565b61395e81613171565b8114613968575f5ffd5b50565b5f8135905061397981613955565b92915050565b5f5f6040838503121561399557613994613027565b5b5f6139a285828601613075565b92505060206139b38582860161396b565b9150509250929050565b5f67ffffffffffffffff8211156139d7576139d6613263565b5b6139e0826131f7565b9050602081019050919050565b5f6139ff6139fa846139bd565b6132c1565b905082815260208101848484011115613a1b57613a1a61339f565b5b613a268482856133d3565b509392505050565b5f82601f830112613a4257613a4161325f565b5b8135613a528482602086016139ed565b91505092915050565b5f60208284031215613a7057613a6f613027565b5b5f82013567ffffffffffffffff811115613a8d57613a8c61302b565b5b613a9984828501613a2e565b91505092915050565b5f5f60408385031215613ab857613ab7613027565b5b5f613ac585828601613075565b9250506020613ad685828601613075565b9150509250929050565b5f5f5f5f5f60a08688031215613af957613af8613027565b5b5f613b0688828901613075565b9550506020613b1788828901613075565b9450506040613b288882890161309f565b9350506060613b398882890161309f565b925050608086013567ffffffffffffffff811115613b5a57613b5961302b565b5b613b6688828901613422565b9150509295509295909350565b5f60208284031215613b8857613b87613027565b5b5f613b9584828501613075565b91505092915050565b7f4e487b71000000000000000000000000000000000000000000000000000000005f52602260045260245ffd5b5f6002820490506001821680613be257607f821691505b602082108103613bf557613bf4613b9e565b5b50919050565b5f604082019050613c0e5f83018561392d565b613c1b602083018461392d565b9392505050565b5f613c2d83856131d9565b9350613c3a8385846133d3565b613c43836131f7565b840190509392505050565b5f6020820190508181035f830152613c67818486613c22565b90509392505050565b5f604082019050613c835f830185612ff6565b613c906020830184612ff6565b9392505050565b7f4e487b71000000000000000000000000000000000000000000000000000000005f52603260045260245ffd5b5f81905092915050565b50565b5f613cdc5f83613cc4565b9150613ce782613cce565b5f82019050919050565b5f613cfb82613cd1565b9150819050919050565b5f819050919050565b5f67ffffffffffffffff82169050919050565b5f819050919050565b5f613d44613d3f613d3a84613d05565b613d21565b613d0e565b9050919050565b613d5481613d2a565b82525050565b5f602082019050613d6d5f830184613d4b565b92915050565b5f613d85613d80846139bd565b6132c1565b905082815260208101848484011115613da157613da061339f565b5b613dac8482856131e9565b509392505050565b5f82601f830112613dc857613dc761325f565b5b8151613dd8848260208601613d73565b91505092915050565b5f60208284031215613df657613df5613027565b5b5f82015167ffffffffffffffff811115613e1357613e1261302b565b5b613e1f84828501613db4565b91505092915050565b613e318161388b565b8114613e3b575f5ffd5b50565b5f81519050613e4c81613e28565b92915050565b5f60208284031215613e6757613e66613027565b5b5f613e7484828501613e3e565b91505092915050565b5f819050815f5260205f209050919050565b5f6020601f8301049050919050565b5f82821b905092915050565b5f60088302613ed97fffffffffffffffffffffffffffffffffffffffffffffffffffffffffffffffff82613e9e565b613ee38683613e9e565b95508019841693508086168417925050509392505050565b5f613f15613f10613f0b84612fed565b613d21565b612fed565b9050919050565b5f819050919050565b613f2e83613efb565b613f42613f3a82613f1c565b848454613eaa565b825550505050565b5f5f905090565b613f59613f4a565b613f64818484613f25565b505050565b5b81811015613f8757613f7c5f82613f51565b600181019050613f6a565b5050565b601f821115613fcc57613f9d81613e7d565b613fa684613e8f565b81016020851015613fb5578190505b613fc9613fc185613e8f565b830182613f69565b50505b505050565b5f82821c905092915050565b5f613fec5f1984600802613fd1565b1980831691505092915050565b5f6140048383613fdd565b9150826002028217905092915050565b61401d826131cf565b67ffffffffffffffff81111561403657614035613263565b5b6140408254613bcb565b61404b828285613f8b565b5f60209050601f83116001811461407c575f841561406a578287015190505b6140748582613ff9565b8655506140db565b601f19841661408a86613e7d565b5f5b828110156140b15784890151825560018201915060208501945060208101905061408c565b868310156140ce57848901516140ca601f891682613fdd565b8355505b6001600288020188555050505b505050505050565b5f81905092915050565b5f6140f7826131cf565b61410181856140e3565b93506141118185602086016131e9565b80840191505092915050565b5f61412882846140ed565b915081905092915050565b7f4e6f6e5472616e736665727261626c65282900000000000000000000000000005f82015250565b5f6141676012836131d9565b915061417282614133565b602082019050919050565b5f6020820190508181035f8301526141948161415b565b9050919050565b5f81519050919050565b5f82825260208201905092915050565b5f6141bf8261419b565b6141c981856141a5565b93506141d98185602086016131e9565b6141e2816131f7565b840191505092915050565b5f60a0820190506142005f83018861392d565b61420d602083018761392d565b61421a6040830186612ff6565b6142276060830185612ff6565b818103608083015261423981846141b5565b90509695505050505050565b5f815190506142538161311c565b92915050565b5f6020828403121561426e5761426d613027565b5b5f61427b84828501614245565b91505092915050565b5f60a0820190506142975f83018861392d565b6142a4602083018761392d565b81810360408301526142b6818661374f565b905081810360608301526142ca818561374f565b905081810360808301526142de81846141b5565b90509695505050505050565b5f6142f48261419b565b6142fe8185613cc4565b935061430e8185602086016131e9565b80840191505092915050565b5f61432582846142ea565b915081905092915050565b7f4e487b71000000000000000000000000000000000000000000000000000000005f52601160045260245ffd5b5f61436782612fed565b915061437283612fed565b925082820190508082111561438a57614389614330565b5b92915050565b5f6080820190506143a35f83018761392d565b6143b06020830186612ff6565b6143bd6040830185612ff6565b6143ca6060830184612ff6565b95945050505050565b5f6040820190508181035f8301526143eb818561374f565b905081810360208301526143ff818461374f565b9050939250505056fea2646970667358221220d5785971fb6f46ba9b895b5a4cf2708869a49221f0b7243bf545b4f2070b59e264736f6c634300081c0033","linkReferences":{}},"methodIdentifiers":{"PREMIUM()":"ea3696ca","STANDARD()":"bcaedade","UPGRADE_INTERFACE_VERSION()":"ad3cb1cc","__Blog_init(address,uint256,string)":"8cc08201","balance()":"b69ef8a8","balanceOf(address,uint256)":"00fdd58e","balanceOfBatch(address[],uint256[])":"4e1273f4","contractName()":"75d0c0dc","exists(uint256)":"4f558e79","getPremiumFee()":"65c1136b","isApprovedForAll(address,address)":"e985e9c5","mint()":"1249c58b","mintPremium(string)":"4c01a4e7","modifyURI(string)":"d20e8de6","owner()":"8da5cb5b","pause()":"8456cb59","paused()":"5c975abb","proxiableUUID()":"52d1902d","renounceOwnership()":"715018a6","safeBatchTransferFrom(address,address,uint256[],uint256[],bytes)":"2eb2c2d6","safeTransferFrom(address,address,uint256,uint256,bytes)":"f242432a","setApprovalForAll(address,bool)":"a22cb465","supportsInterface(bytes4)":"01ffc9a7","totalSupply()":"18160ddd","totalSupply(uint256)":"bd85b039","transferOwnership(address)":"f2fde38b","unpause()":"3f4ba83a","updatePremiumFee(uint256)":"94205c2f","upgradeToAndCall(address,bytes)":"4f1ef286","uri(uint256)":"0e89341c","version()":"54fd4d50","withdraw(address)":"51cff8d9"},"storageLayout":{"storage":[],"types":{}},"id":44}